:100000000C9434000C9451000C9451000C94510049
:100010000C9451000C9451000C9451000C9451001C
:100020000C9451000C9451000C9451000C9451000C
:100030000C9453000C9451000C9451000C945100FA
:100040000C9451000C94DE000C9451000C946E0141
:100050000C9451000C9476000C9451000C945100B7
:100060000C9451000C94510011241FBECFEFD8E026
:10007000DEBFCDBF11E0A0E0B1E0E2EAF4E002C0F3
:1000800005900D92AE32B107D9F721E0AEE2B1E0B2
:1000900001C01D92A433B207E1F70E94CE010C9477
:1000A0004F020C9400001F920F920FB60F92112472
:1000B0008F939F938AE18A95F1F700C080912F0179
:1000C0008F5F80932F01823014F010922F01809166
:1000D0007C0090912F01807F892B80937C009F91E1
:1000E0008F910F900FBE0F901F9018951F920F9237
:1000F0000FB60F9211248F93809179008093310174
:1001000081E080932E018F910F900FBE0F901F9072
:100110001895CF93DF93E4E6F0E080818E7F8083B3
:10012000EAE7F0E080818068808380818860808356
:1001300080818660808387B1807F87B9ACE7B0E03B
:100140008C9180648C938C9180628C93CBE7D0E00F
:100150008881856088838081806280838C91909182
:100160002F01807F892B8C93DF91CF910895E4E656
:10017000F0E08081877F8083109285001092840058
:10018000EFE6F0E0808184608083E1E8F0E0808148
:1001900088618083E6E8F0E080E797E191838083DF
:1001A0008081918190938B0080938A00B29A089508
:1001B000E1E8F0E080818260808308951F920F92D1
:1001C0000FB60F9211248F938EB58093320181E088
:1001D000809330018F910F900FBE0F901F90189554
:1001E00084B18C6284B9579A8CB580658CBD8CB50E
:1001F000837F8CBD8CB580688CBD5F9A08958EBD61
:10020000809130018823E1F31092300108958EBD72
:10021000809130018823E1F3109230018091320106
:10022000FB018083089516BC880F87BD85B5826069
:1002300085BDA99BFECFA99A85B5887F85BD089508
:10024000E4E6F0E080818F7D808384B5826084BDA8
:1002500085B5887F85BD0895209A28988FEE90EA0D
:100260000197F1F700C000005F9885E20E94FF004F
:1002700082E00E94FF005F9A5F9886E20E94FF0082
:100280008FE00E94FF005F9A5F9883E20E94FF0068
:1002900083E00E94FF005F9A5F9884E20E94FF0063
:1002A00080E00E94FF005F9A5F9881EE0E94FF004D
:1002B0005F9A08955F9880E20E94FF008AE40E949E
:1002C000FF005F9A8FE697E10197F1F700C0000009
:1002D000289A95E19A95F1F7000008951F920F92E0
:1002E0000FB60F9211248F93EF93FF9380913301F8
:1002F0008093C600E1ECF0E080818F7D808381E017
:1003000080930001FF91EF918F910F900FBE0F909E
:100310001F901895E4E6F0E020812D7F20839093D4
:10032000C5008093C400E2ECF0E080818773808395
:10033000A0ECB0E08C918D7F8C938081866080836F
:10034000E1ECF0E080818B7F808380818860808316
:100350000895909100019923E1F310920001809398
:1003600033018091C10080628093C1000895CF93D2
:10037000DF93EC018991882319F00E94A901FACF3B
:10038000DF91CF91089587E690E00E948A010E9454
:10039000B7000E94890078940C94D800CF93DF9323
:1003A000CDB7DEB728970FB6F894DEBF0FBECDBF2E
:1003B0000E94C30180912E018823E1F310922E0147
:1003C00081E091E00E94B701809131014AE0BE01D5
:1003D0006B5F7F4F082E000C990B0E941A02CE0112
:1003E00005960E94B70180912E018823E1F31092B7
:1003F0002E0185E191E00E94B701809131014AE030
:10040000BE016F5F7F4F082E000C990B0E941A02ED
:10041000CE0101960E94B70189E291E00E94B701E6
:100420002FEF84E39CE0215080409040E1F700C032
:100430000000C0CFBB274A3031F4992322F4BDE23B
:10044000909581959F4F0C942602BB27FB01552761
:10045000AA27880F991FAA1FA41710F0A41B839521
:100460005051B9F7A05DAA3308F0A95DA193009798
:1004700079F7B111B1931192CB010C943F02DC01D9
:10048000FC01672F71917723E1F7329704C07C91CB
:100490006D9370836291AE17BF07C8F30895F89407
:0204A000FFCF8C
:1004A200010D0A4A6F79737469636B205820617871
:1004B20069733A20000D0A4A6F79737469636B207D
:0E04C2005920617869733A20000A0A0A000086
:00000001FF
