:100000000C9434000C9488000C9451000C94510012
:100010000C9451000C9451000C9451000C9451001C
:100020000C9451000C9451000C9451000C9451000C
:100030000C9451000C9451000C9451010C945100FB
:100040000C9451000C9453000C9451000C945100EA
:100050000C9451000C9451000C9451000C945100DC
:100060000C9451000C94510011241FBECFEFD8E026
:10007000DEBFCDBF11E0A0E0B1E0EEEBF3E002C0E7
:1000800005900D92A430B107D9F721E0A4E0B1E0CA
:1000900001C01D92A830B207E1F70E9498010C94AC
:1000A000DD010C9400001F920F920FB60F921124E5
:1000B0008F938EB58093070181E0809304018F9127
:1000C0000F900FBE0F901F90189584B18C6284B969
:1000D000579A8CB580658CBD8CB5837F8CBD8CB5F3
:1000E00080688CBD5F9A08958EBD8091040188233D
:1000F000E1F31092040108958EBD809104018823DC
:10010000E1F31092040180910701FB0180830895BF
:100110001F920F920FB60F9211248F9381E080935C
:1001200005018F910F900FBE0F901F901895529858
:100130005A9AE9E6F0E0808182608083E89AE09A4A
:10014000209A28988FEE90EA0197F1F700C00000FE
:100150005F9885E20E94740082E00E9474005F9ABA
:100160005F9886E20E9474008FE00E9474005F9A9C
:100170005F9883E20E94740083E00E9474005F9A9B
:100180005F9881E20E94740080E00E9474005F9A90
:100190005F9882E20E94740081E00E9474005F9A7E
:1001A0005F9882E30E94740082E00E9474005F9A6C
:1001B0005F9882EE0E9474005F9A5F9887E20E94C7
:1001C000740080E40E9474005F9A08955F9880E252
:1001D0000E9474008BE30E9474005F9A8FE697E19F
:1001E0000197F1F700C00000289A87E092E001979C
:1001F000F1F700C000000895E4E6F0E08081877F19
:10020000808384B1866084B9109285001092840046
:10021000E1E8F0E0808188618083E0E8F0E08081BF
:10022000826A808381E792E09093870080938600C2
:100230008DE590E0909389008093880090938B00E7
:1002400080938A000895E1E8F0E0808184608083F3
:100250000895EF92FF921F93CF93DF93162F7A01A9
:10026000E90137EE282F3203C00111248C529F4C34
:10027000E4E6F0E0BF010E94B501D70111967C933E
:100280006E933103C00111248C529F4CBF010E9418
:10029000B50179836883DF91CF911F91FF90EF9033
:1002A00008951F920F920FB60F9211248F939F9370
:1002B000809106018F5F80930601833099F48091CD
:1002C00002019091030190938900809388008091AE
:1002D00000019091010190938B0080938A008FEF31
:1002E000809306019F918F910F900FBE0F901F90EA
:1002F0001895E4E6F0E080818F7D808384B582608C
:1003000084BDEEE6F0E0808182608083A99A16BC0D
:100310008EE487BD089585B5856085BD0895789480
:100320000E94FC000E9479010E9423010C948B0121
:100330000E948F012FEF8BE792E92150804090407F
:10034000E1F700C0000020E031E042E051E06FEF53
:100350008FEF0E9429012FEF8BE792E92150804017
:100360009040E1F700C00000E5CF97FB072E16F4A0
:10037000009407D077FD09D00E94C90107FC05D081
:100380003EF4909581959F4F0895709561957F4FAC
:100390000895AA1BBB1B51E107C0AA1FBB1FA617CC
:1003A000B70710F0A61BB70B881F991F5A95A9F71E
:0E03B00080959095BC01CD010895F894FFCF83
:0403BE005D005D0081
:00000001FF
